{
  "_format": "hh-sol-artifact-1",
  "contractName": "MyEpicNFT",
  "sourceName": "contracts/MyEpicNFT.sol",
  "abi": [
    {
      "inputs": [],
      "stateMutability": "nonpayable",
      "type": "constructor"
    },
    {
      "anonymous": false,
      "inputs": [
        {
          "indexed": true,
          "internalType": "address",
          "name": "owner",
          "type": "address"
        },
        {
          "indexed": true,
          "internalType": "address",
          "name": "approved",
          "type": "address"
        },
        {
          "indexed": true,
          "internalType": "uint256",
          "name": "tokenId",
          "type": "uint256"
        }
      ],
      "name": "Approval",
      "type": "event"
    },
    {
      "anonymous": false,
      "inputs": [
        {
          "indexed": true,
          "internalType": "address",
          "name": "owner",
          "type": "address"
        },
        {
          "indexed": true,
          "internalType": "address",
          "name": "operator",
          "type": "address"
        },
        {
          "indexed": false,
          "internalType": "bool",
          "name": "approved",
          "type": "bool"
        }
      ],
      "name": "ApprovalForAll",
      "type": "event"
    },
    {
      "anonymous": false,
      "inputs": [
        {
          "indexed": false,
          "internalType": "address",
          "name": "sender",
          "type": "address"
        },
        {
          "indexed": false,
          "internalType": "uint256",
          "name": "tokenId",
          "type": "uint256"
        }
      ],
      "name": "NewEpicNFTMinted",
      "type": "event"
    },
    {
      "anonymous": false,
      "inputs": [
        {
          "indexed": false,
          "internalType": "uint8",
          "name": "totalCount",
          "type": "uint8"
        }
      ],
      "name": "NewMintCount",
      "type": "event"
    },
    {
      "anonymous": false,
      "inputs": [
        {
          "indexed": true,
          "internalType": "address",
          "name": "from",
          "type": "address"
        },
        {
          "indexed": true,
          "internalType": "address",
          "name": "to",
          "type": "address"
        },
        {
          "indexed": true,
          "internalType": "uint256",
          "name": "tokenId",
          "type": "uint256"
        }
      ],
      "name": "Transfer",
      "type": "event"
    },
    {
      "inputs": [
        {
          "internalType": "address",
          "name": "to",
          "type": "address"
        },
        {
          "internalType": "uint256",
          "name": "tokenId",
          "type": "uint256"
        }
      ],
      "name": "approve",
      "outputs": [],
      "stateMutability": "nonpayable",
      "type": "function"
    },
    {
      "inputs": [
        {
          "internalType": "address",
          "name": "owner",
          "type": "address"
        }
      ],
      "name": "balanceOf",
      "outputs": [
        {
          "internalType": "uint256",
          "name": "",
          "type": "uint256"
        }
      ],
      "stateMutability": "view",
      "type": "function"
    },
    {
      "inputs": [
        {
          "internalType": "uint256",
          "name": "tokenId",
          "type": "uint256"
        }
      ],
      "name": "getApproved",
      "outputs": [
        {
          "internalType": "address",
          "name": "",
          "type": "address"
        }
      ],
      "stateMutability": "view",
      "type": "function"
    },
    {
      "inputs": [
        {
          "internalType": "address",
          "name": "owner",
          "type": "address"
        },
        {
          "internalType": "address",
          "name": "operator",
          "type": "address"
        }
      ],
      "name": "isApprovedForAll",
      "outputs": [
        {
          "internalType": "bool",
          "name": "",
          "type": "bool"
        }
      ],
      "stateMutability": "view",
      "type": "function"
    },
    {
      "inputs": [],
      "name": "makeAnEpicNFT",
      "outputs": [],
      "stateMutability": "nonpayable",
      "type": "function"
    },
    {
      "inputs": [],
      "name": "mintCount",
      "outputs": [
        {
          "internalType": "uint8",
          "name": "",
          "type": "uint8"
        }
      ],
      "stateMutability": "view",
      "type": "function"
    },
    {
      "inputs": [],
      "name": "name",
      "outputs": [
        {
          "internalType": "string",
          "name": "",
          "type": "string"
        }
      ],
      "stateMutability": "view",
      "type": "function"
    },
    {
      "inputs": [
        {
          "internalType": "uint256",
          "name": "tokenId",
          "type": "uint256"
        }
      ],
      "name": "ownerOf",
      "outputs": [
        {
          "internalType": "address",
          "name": "",
          "type": "address"
        }
      ],
      "stateMutability": "view",
      "type": "function"
    },
    {
      "inputs": [
        {
          "internalType": "uint256",
          "name": "tokenId",
          "type": "uint256"
        }
      ],
      "name": "pickRandomFirstWord",
      "outputs": [
        {
          "internalType": "string",
          "name": "",
          "type": "string"
        }
      ],
      "stateMutability": "view",
      "type": "function"
    },
    {
      "inputs": [
        {
          "internalType": "uint256",
          "name": "tokenId",
          "type": "uint256"
        }
      ],
      "name": "pickRandomSecondWord",
      "outputs": [
        {
          "internalType": "string",
          "name": "",
          "type": "string"
        }
      ],
      "stateMutability": "view",
      "type": "function"
    },
    {
      "inputs": [
        {
          "internalType": "uint256",
          "name": "tokenId",
          "type": "uint256"
        }
      ],
      "name": "pickRandomThirdWord",
      "outputs": [
        {
          "internalType": "string",
          "name": "",
          "type": "string"
        }
      ],
      "stateMutability": "view",
      "type": "function"
    },
    {
      "inputs": [
        {
          "internalType": "address",
          "name": "from",
          "type": "address"
        },
        {
          "internalType": "address",
          "name": "to",
          "type": "address"
        },
        {
          "internalType": "uint256",
          "name": "tokenId",
          "type": "uint256"
        }
      ],
      "name": "safeTransferFrom",
      "outputs": [],
      "stateMutability": "nonpayable",
      "type": "function"
    },
    {
      "inputs": [
        {
          "internalType": "address",
          "name": "from",
          "type": "address"
        },
        {
          "internalType": "address",
          "name": "to",
          "type": "address"
        },
        {
          "internalType": "uint256",
          "name": "tokenId",
          "type": "uint256"
        },
        {
          "internalType": "bytes",
          "name": "_data",
          "type": "bytes"
        }
      ],
      "name": "safeTransferFrom",
      "outputs": [],
      "stateMutability": "nonpayable",
      "type": "function"
    },
    {
      "inputs": [
        {
          "internalType": "address",
          "name": "operator",
          "type": "address"
        },
        {
          "internalType": "bool",
          "name": "approved",
          "type": "bool"
        }
      ],
      "name": "setApprovalForAll",
      "outputs": [],
      "stateMutability": "nonpayable",
      "type": "function"
    },
    {
      "inputs": [
        {
          "internalType": "bytes4",
          "name": "interfaceId",
          "type": "bytes4"
        }
      ],
      "name": "supportsInterface",
      "outputs": [
        {
          "internalType": "bool",
          "name": "",
          "type": "bool"
        }
      ],
      "stateMutability": "view",
      "type": "function"
    },
    {
      "inputs": [],
      "name": "symbol",
      "outputs": [
        {
          "internalType": "string",
          "name": "",
          "type": "string"
        }
      ],
      "stateMutability": "view",
      "type": "function"
    },
    {
      "inputs": [
        {
          "internalType": "uint256",
          "name": "tokenId",
          "type": "uint256"
        }
      ],
      "name": "tokenURI",
      "outputs": [
        {
          "internalType": "string",
          "name": "",
          "type": "string"
        }
      ],
      "stateMutability": "view",
      "type": "function"
    },
    {
      "inputs": [
        {
          "internalType": "address",
          "name": "from",
          "type": "address"
        },
        {
          "internalType": "address",
          "name": "to",
          "type": "address"
        },
        {
          "internalType": "uint256",
          "name": "tokenId",
          "type": "uint256"
        }
      ],
      "name": "transferFrom",
      "outputs": [],
      "stateMutability": "nonpayable",
      "type": "function"
    }
  ],
  "bytecode": "0x608060405260405180610160016040528061012f81526020016200469761012f91396008908051906020019062000038929190620006b6565b506040518060c001604052806040518060400160405280600281526020017f312b00000000000000000000000000000000000000000000000000000000000081525081526020016040518060400160405280600281526020017f322b00000000000000000000000000000000000000000000000000000000000081525081526020016040518060400160405280600281526020017f332b00000000000000000000000000000000000000000000000000000000000081525081526020016040518060400160405280600281526020017f342b00000000000000000000000000000000000000000000000000000000000081525081526020016040518060400160405280600281526020017f352b00000000000000000000000000000000000000000000000000000000000081525081526020016040518060400160405280600281526020017f362b0000000000000000000000000000000000000000000000000000000000008152508152506009906006620001b692919062000747565b506040518060c001604052806040518060400160405280600281526020017f313d00000000000000000000000000000000000000000000000000000000000081525081526020016040518060400160405280600281526020017f323d00000000000000000000000000000000000000000000000000000000000081525081526020016040518060400160405280600281526020017f333d00000000000000000000000000000000000000000000000000000000000081525081526020016040518060400160405280600281526020017f343d00000000000000000000000000000000000000000000000000000000000081525081526020016040518060400160405280600281526020017f353d00000000000000000000000000000000000000000000000000000000000081525081526020016040518060400160405280600281526020017f363d000000000000000000000000000000000000000000000000000000000000815250815250600a9060066200033492919062000747565b506040518060c001604052806040518060400160405280600181526020017f330000000000000000000000000000000000000000000000000000000000000081525081526020016040518060400160405280600181526020017f340000000000000000000000000000000000000000000000000000000000000081525081526020016040518060400160405280600181526020017f350000000000000000000000000000000000000000000000000000000000000081525081526020016040518060400160405280600181526020017f370000000000000000000000000000000000000000000000000000000000000081525081526020016040518060400160405280600181526020017f390000000000000000000000000000000000000000000000000000000000000081525081526020016040518060400160405280600281526020017f3130000000000000000000000000000000000000000000000000000000000000815250815250600b906006620004b292919062000747565b506000600c60006101000a81548160ff021916908360ff160217905550600a600c60016101000a81548160ff021916908360ff160217905550348015620004f857600080fd5b506040518060400160405280600981526020017f5371756172654e465400000000000000000000000000000000000000000000008152506040518060400160405280600681526020017f535155415245000000000000000000000000000000000000000000000000000081525081600090805190602001906200057d929190620006b6565b50806001908051906020019062000596929190620006b6565b505050620005e46040518060400160405280601881526020017f54686973206973206d79204e465420636f6e74726163742e0000000000000000815250620005ea60201b620012791760201c565b62000968565b6200068a816040516024016200060191906200087c565b6040516020818303038152906040527f41304fac000000000000000000000000000000000000000000000000000000007bffffffffffffffffffffffffffffffffffffffffffffffffffffffff19166020820180517bffffffffffffffffffffffffffffffffffffffffffffffffffffffff83818316178352505050506200068d60201b60201c565b50565b60008151905060006a636f6e736f6c652e6c6f679050602083016000808483855afa5050505050565b828054620006c490620008f2565b90600052602060002090601f016020900481019282620006e8576000855562000734565b82601f106200070357805160ff191683800117855562000734565b8280016001018555821562000734579182015b828111156200073357825182559160200191906001019062000716565b5b509050620007439190620007ae565b5090565b8280548282559060005260206000209081019282156200079b579160200282015b828111156200079a57825182908051906020019062000789929190620006b6565b509160200191906001019062000768565b5b509050620007aa9190620007cd565b5090565b5b80821115620007c9576000816000905550600101620007af565b5090565b5b80821115620007f15760008181620007e79190620007f5565b50600101620007ce565b5090565b5080546200080390620008f2565b6000825580601f1062000817575062000838565b601f016020900490600052602060002090810190620008379190620007ae565b5b50565b60006200084882620008a0565b620008548185620008ab565b935062000866818560208601620008bc565b620008718162000957565b840191505092915050565b600060208201905081810360008301526200089881846200083b565b905092915050565b600081519050919050565b600082825260208201905092915050565b60005b83811015620008dc578082015181840152602081019050620008bf565b83811115620008ec576000848401525b50505050565b600060028204905060018216806200090b57607f821691505b6020821081141562000922576200092162000928565b5b50919050565b7f4e487b7100000000000000000000000000000000000000000000000000000000600052602260045260246000fd5b6000601f19601f8301169050919050565b613d1f80620009786000396000f3fe608060405234801561001057600080fd5b50600436106101165760003560e01c806395d89b41116100a2578063b88d4fde11610071578063b88d4fde14610305578063c575757a14610321578063c87b56dd14610351578063de9d132f14610381578063e985e9c51461038b57610116565b806395d89b411461027d5780639659867e1461029b578063a22cb465146102b9578063b187301f146102d557610116565b806323b872dd116100e957806323b872dd146101b55780632de38d68146101d157806342842e0e146102015780636352211e1461021d57806370a082311461024d57610116565b806301ffc9a71461011b57806306fdde031461014b578063081812fc14610169578063095ea7b314610199575b600080fd5b61013560048036038101906101309190612741565b6103bb565b6040516101429190612e74565b60405180910390f35b61015361049d565b6040516101609190612e8f565b60405180910390f35b610183600480360381019061017e9190612793565b61052f565b6040516101909190612de4565b60405180910390f35b6101b360048036038101906101ae9190612705565b6105b4565b005b6101cf60048036038101906101ca91906125ff565b6106cc565b005b6101eb60048036038101906101e69190612793565b61072c565b6040516101f89190612e8f565b60405180910390f35b61021b600480360381019061021691906125ff565b6108c8565b005b61023760048036038101906102329190612793565b6108e8565b6040516102449190612de4565b60405180910390f35b6102676004803603810190610262919061259a565b61099a565b604051610274919061311f565b60405180910390f35b610285610a52565b6040516102929190612e8f565b60405180910390f35b6102a3610ae4565b6040516102b0919061313a565b60405180910390f35b6102d360048036038101906102ce91906126c9565b610afb565b005b6102ef60048036038101906102ea9190612793565b610b11565b6040516102fc9190612e8f565b60405180910390f35b61031f600480360381019061031a919061264e565b610c2f565b005b61033b60048036038101906103369190612793565b610c91565b6040516103489190612e8f565b60405180910390f35b61036b60048036038101906103669190612793565b610daf565b6040516103789190612e8f565b60405180910390f35b610389610f01565b005b6103a560048036038101906103a091906125c3565b6111e5565b6040516103b29190612e74565b60405180910390f35b60007f80ac58cd000000000000000000000000000000000000000000000000000000007bffffffffffffffffffffffffffffffffffffffffffffffffffffffff1916827bffffffffffffffffffffffffffffffffffffffffffffffffffffffff1916148061048657507f5b5e139f000000000000000000000000000000000000000000000000000000007bffffffffffffffffffffffffffffffffffffffffffffffffffffffff1916827bffffffffffffffffffffffffffffffffffffffffffffffffffffffff1916145b80610496575061049582611312565b5b9050919050565b6060600080546104ac90613446565b80601f01602080910402602001604051908101604052809291908181526020018280546104d890613446565b80156105255780601f106104fa57610100808354040283529160200191610525565b820191906000526020600020905b81548152906001019060200180831161050857829003601f168201915b5050505050905090565b600061053a8261137c565b610579576040517f08c379a00000000000000000000000000000000000000000000000000000000081526004016105709061309f565b60405180910390fd5b6004600083815260200190815260200160002060009054906101000a900473ffffffffffffffffffffffffffffffffffffffff169050919050565b60006105bf826108e8565b90508073ffffffffffffffffffffffffffffffffffffffff168373ffffffffffffffffffffffffffffffffffffffff161415610630576040517f08c379a0000000000000000000000000000000000000000000000000000000008152600401610627906130df565b60405180910390fd5b8073ffffffffffffffffffffffffffffffffffffffff1661064f6113e8565b73ffffffffffffffffffffffffffffffffffffffff16148061067e575061067d816106786113e8565b6111e5565b5b6106bd576040517f08c379a00000000000000000000000000000000000000000000000000000000081526004016106b490612fdf565b60405180910390fd5b6106c783836113f0565b505050565b6106dd6106d76113e8565b826114a9565b61071c576040517f08c379a0000000000000000000000000000000000000000000000000000000008152600401610713906130ff565b60405180910390fd5b610727838383611587565b505050565b6060600061076061073c846117ee565b60405160200161074c9190612da0565b60405160208183030381529060405261199b565b90506107a16040518060400160405280600d81526020017f72616e64202d20736565643a2000000000000000000000000000000000000000815250826119ce565b600980549050816107b291906134f2565b90506107f36040518060400160405280601381526020017f72616e64202d20666972737420776f72643a2000000000000000000000000000815250826119ce565b6009818154811061082d577f4e487b7100000000000000000000000000000000000000000000000000000000600052603260045260246000fd5b90600052602060002001805461084290613446565b80601f016020809104026020016040519081016040528092919081815260200182805461086e90613446565b80156108bb5780601f10610890576101008083540402835291602001916108bb565b820191906000526020600020905b81548152906001019060200180831161089e57829003601f168201915b5050505050915050919050565b6108e383838360405180602001604052806000815250610c2f565b505050565b6000806002600084815260200190815260200160002060009054906101000a900473ffffffffffffffffffffffffffffffffffffffff169050600073ffffffffffffffffffffffffffffffffffffffff168173ffffffffffffffffffffffffffffffffffffffff161415610991576040517f08c379a00000000000000000000000000000000000000000000000000000000081526004016109889061301f565b60405180910390fd5b80915050919050565b60008073ffffffffffffffffffffffffffffffffffffffff168273ffffffffffffffffffffffffffffffffffffffff161415610a0b576040517f08c379a0000000000000000000000000000000000000000000000000000000008152600401610a0290612fff565b60405180910390fd5b600360008373ffffffffffffffffffffffffffffffffffffffff1673ffffffffffffffffffffffffffffffffffffffff168152602001908152602001600020549050919050565b606060018054610a6190613446565b80601f0160208091040260200160405190810160405280929190818152602001828054610a8d90613446565b8015610ada5780601f10610aaf57610100808354040283529160200191610ada565b820191906000526020600020905b815481529060010190602001808311610abd57829003601f168201915b5050505050905090565b6000600c60009054906101000a900460ff16905090565b610b0d610b066113e8565b8383611a6a565b5050565b60606000610b45610b21846117ee565b604051602001610b319190612d39565b60405160208183030381529060405261199b565b9050600a8054905081610b5891906134f2565b9050600a8181548110610b94577f4e487b7100000000000000000000000000000000000000000000000000000000600052603260045260246000fd5b906000526020600020018054610ba990613446565b80601f0160208091040260200160405190810160405280929190818152602001828054610bd590613446565b8015610c225780601f10610bf757610100808354040283529160200191610c22565b820191906000526020600020905b815481529060010190602001808311610c0557829003601f168201915b5050505050915050919050565b610c40610c3a6113e8565b836114a9565b610c7f576040517f08c379a0000000000000000000000000000000000000000000000000000000008152600401610c76906130ff565b60405180910390fd5b610c8b84848484611bd7565b50505050565b60606000610cc5610ca1846117ee565b604051602001610cb19190612d17565b60405160208183030381529060405261199b565b9050600b8054905081610cd891906134f2565b9050600b8181548110610d14577f4e487b7100000000000000000000000000000000000000000000000000000000600052603260045260246000fd5b906000526020600020018054610d2990613446565b80601f0160208091040260200160405190810160405280929190818152602001828054610d5590613446565b8015610da25780601f10610d7757610100808354040283529160200191610da2565b820191906000526020600020905b815481529060010190602001808311610d8557829003601f168201915b5050505050915050919050565b6060610dba8261137c565b610df9576040517f08c379a0000000000000000000000000000000000000000000000000000000008152600401610df09061307f565b60405180910390fd5b6000600660008481526020019081526020016000208054610e1990613446565b80601f0160208091040260200160405190810160405280929190818152602001828054610e4590613446565b8015610e925780601f10610e6757610100808354040283529160200191610e92565b820191906000526020600020905b815481529060010190602001808311610e7557829003601f168201915b505050505090506000610ea3611c33565b9050600081511415610eb9578192505050610efc565b600082511115610eee578082604051602001610ed6929190612c79565b60405160208183030381529060405292505050610efc565b610ef784611c4a565b925050505b919050565b6001600c60019054906101000a900460ff16610f1d919061334f565b60ff16600c60009054906101000a900460ff1660ff161115610f3e57600080fd5b6000610f4a6007611cf1565b90506000610f578261072c565b90506000610f6483610b11565b90506000610f7184610c91565b90506000838383604051602001610f8a93929190612c9d565b604051602081830303815290604052905060006008858585604051602001610fb59493929190612cce565b60405160208183030381529060405290506110046040518060400160405280601581526020017f0a2d2d2d2d2d205356472064617461202d2d2d2d2d0000000000000000000000815250611279565b61100d81611279565b61104b6040518060400160405280601581526020017f2d2d2d2d2d2d2d2d2d2d2d2d2d2d2d2d2d2d2d2d0a0000000000000000000000815250611279565b600061107f8361105a84611cff565b60405160200161106b929190612d5b565b604051602081830303815290604052611cff565b90506000816040516020016110949190612dc2565b60405160208183030381529060405290506110e36040518060400160405280601581526020017f0a2d2d2d2d2d20546f6b656e20555249202d2d2d2d0000000000000000000000815250611279565b6110ec81611279565b61112a6040518060400160405280601581526020017f2d2d2d2d2d2d2d2d2d2d2d2d2d2d2d2d2d2d2d2d0a0000000000000000000000815250611279565b6111343389611ebd565b61113e8882611edb565b611161604051806060016040528060258152602001613c85602591398933611f4f565b61116b6007611fee565b6001600c60008282829054906101000a900460ff1661118a9190613259565b92506101000a81548160ff021916908360ff1602179055507febb98688741ffa4c7589bf325de30cf7becb63de567842e1ccdb6cb949fdc82c33896040516111d3929190612e4b565b60405180910390a15050505050505050565b6000600560008473ffffffffffffffffffffffffffffffffffffffff1673ffffffffffffffffffffffffffffffffffffffff16815260200190815260200160002060008373ffffffffffffffffffffffffffffffffffffffff1673ffffffffffffffffffffffffffffffffffffffff16815260200190815260200160002060009054906101000a900460ff16905092915050565b61130f8160405160240161128d9190612e8f565b6040516020818303038152906040527f41304fac000000000000000000000000000000000000000000000000000000007bffffffffffffffffffffffffffffffffffffffffffffffffffffffff19166020820180517bffffffffffffffffffffffffffffffffffffffffffffffffffffffff8381831617835250505050612004565b50565b60007f01ffc9a7000000000000000000000000000000000000000000000000000000007bffffffffffffffffffffffffffffffffffffffffffffffffffffffff1916827bffffffffffffffffffffffffffffffffffffffffffffffffffffffff1916149050919050565b60008073ffffffffffffffffffffffffffffffffffffffff166002600084815260200190815260200160002060009054906101000a900473ffffffffffffffffffffffffffffffffffffffff1673ffffffffffffffffffffffffffffffffffffffff1614159050919050565b600033905090565b816004600083815260200190815260200160002060006101000a81548173ffffffffffffffffffffffffffffffffffffffff021916908373ffffffffffffffffffffffffffffffffffffffff160217905550808273ffffffffffffffffffffffffffffffffffffffff16611463836108e8565b73ffffffffffffffffffffffffffffffffffffffff167f8c5be1e5ebec7d5bd14f71427d1e84f3dd0314c0f7b2291e5b200ac8c7c3b92560405160405180910390a45050565b60006114b48261137c565b6114f3576040517f08c379a00000000000000000000000000000000000000000000000000000000081526004016114ea90612fbf565b60405180910390fd5b60006114fe836108e8565b90508073ffffffffffffffffffffffffffffffffffffffff168473ffffffffffffffffffffffffffffffffffffffff16148061156d57508373ffffffffffffffffffffffffffffffffffffffff166115558461052f565b73ffffffffffffffffffffffffffffffffffffffff16145b8061157e575061157d81856111e5565b5b91505092915050565b8273ffffffffffffffffffffffffffffffffffffffff166115a7826108e8565b73ffffffffffffffffffffffffffffffffffffffff16146115fd576040517f08c379a00000000000000000000000000000000000000000000000000000000081526004016115f490612f3f565b60405180910390fd5b600073ffffffffffffffffffffffffffffffffffffffff168273ffffffffffffffffffffffffffffffffffffffff16141561166d576040517f08c379a000000000000000000000000000000000000000000000000000000000815260040161166490612f7f565b60405180910390fd5b61167883838361202d565b6116836000826113f0565b6001600360008573ffffffffffffffffffffffffffffffffffffffff1673ffffffffffffffffffffffffffffffffffffffff16815260200190815260200160002060008282546116d3919061331b565b925050819055506001600360008473ffffffffffffffffffffffffffffffffffffffff1673ffffffffffffffffffffffffffffffffffffffff168152602001908152602001600020600082825461172a9190613203565b92505081905550816002600083815260200190815260200160002060006101000a81548173ffffffffffffffffffffffffffffffffffffffff021916908373ffffffffffffffffffffffffffffffffffffffff160217905550808273ffffffffffffffffffffffffffffffffffffffff168473ffffffffffffffffffffffffffffffffffffffff167fddf252ad1be2c89b69c2b068fc378daa952ba7f163c4a11628f55a4df523b3ef60405160405180910390a46117e9838383612032565b505050565b60606000821415611836576040518060400160405280600181526020017f30000000000000000000000000000000000000000000000000000000000000008152509050611996565b600082905060005b60008214611868578080611851906134a9565b915050600a826118619190613290565b915061183e565b60008167ffffffffffffffff8111156118aa577f4e487b7100000000000000000000000000000000000000000000000000000000600052604160045260246000fd5b6040519080825280601f01601f1916602001820160405280156118dc5781602001600182028036833780820191505090505b5090505b6000851461198f576001826118f5919061331b565b9150600a8561190491906134f2565b60306119109190613203565b60f81b81838151811061194c577f4e487b7100000000000000000000000000000000000000000000000000000000600052603260045260246000fd5b60200101907effffffffffffffffffffffffffffffffffffffffffffffffffffffffffffff1916908160001a905350600a856119889190613290565b94506118e0565b8093505050505b919050565b6000816040516020016119ae9190612c62565b6040516020818303038152906040528051906020012060001c9050919050565b611a6682826040516024016119e4929190612eb1565b6040516020818303038152906040527f9710a9d0000000000000000000000000000000000000000000000000000000007bffffffffffffffffffffffffffffffffffffffffffffffffffffffff19166020820180517bffffffffffffffffffffffffffffffffffffffffffffffffffffffff8381831617835250505050612004565b5050565b8173ffffffffffffffffffffffffffffffffffffffff168373ffffffffffffffffffffffffffffffffffffffff161415611ad9576040517f08c379a0000000000000000000000000000000000000000000000000000000008152600401611ad090612f9f565b60405180910390fd5b80600560008573ffffffffffffffffffffffffffffffffffffffff1673ffffffffffffffffffffffffffffffffffffffff16815260200190815260200160002060008473ffffffffffffffffffffffffffffffffffffffff1673ffffffffffffffffffffffffffffffffffffffff16815260200190815260200160002060006101000a81548160ff0219169083151502179055508173ffffffffffffffffffffffffffffffffffffffff168373ffffffffffffffffffffffffffffffffffffffff167f17307eab39ab6107e8899845ad3d59bd9653f200f220920489ca2b5937696c3183604051611bca9190612e74565b60405180910390a3505050565b611be2848484611587565b611bee84848484612037565b611c2d576040517f08c379a0000000000000000000000000000000000000000000000000000000008152600401611c2490612f1f565b60405180910390fd5b50505050565b606060405180602001604052806000815250905090565b6060611c558261137c565b611c94576040517f08c379a0000000000000000000000000000000000000000000000000000000008152600401611c8b906130bf565b60405180910390fd5b6000611c9e611c33565b90506000815111611cbe5760405180602001604052806000815250611ce9565b80611cc8846117ee565b604051602001611cd9929190612c79565b6040516020818303038152906040525b915050919050565b600081600001549050919050565b60606000825190506000811415611d285760405180602001604052806000815250915050611eb8565b60006003600283611d399190613203565b611d439190613290565b6004611d4f91906132c1565b90506000602082611d609190613203565b67ffffffffffffffff811115611d9f577f4e487b7100000000000000000000000000000000000000000000000000000000600052604160045260246000fd5b6040519080825280601f01601f191660200182016040528015611dd15781602001600182028036833780820191505090505b5090506000604051806060016040528060408152602001613caa604091399050600181016020830160005b86811015611e755760038101905062ffffff818a015116603f8160121c168401518060081b905060ff603f83600c1c1686015116810190508060081b905060ff603f8360061c1686015116810190508060081b905060ff603f831686015116810190508060e01b90508084526004840193505050611dfc565b506003860660018114611e8f5760028114611e9f57611eaa565b613d3d60f01b6002830352611eaa565b603d60f81b60018303525b508484525050819450505050505b919050565b611ed78282604051806020016040528060008152506121ce565b5050565b611ee48261137c565b611f23576040517f08c379a0000000000000000000000000000000000000000000000000000000008152600401611f1a9061303f565b60405180910390fd5b80600660008481526020019081526020016000209080519060200190611f4a929190612426565b505050565b611fe9838383604051602401611f6793929190612ee1565b6040516020818303038152906040527fe3849f79000000000000000000000000000000000000000000000000000000007bffffffffffffffffffffffffffffffffffffffffffffffffffffffff19166020820180517bffffffffffffffffffffffffffffffffffffffffffffffffffffffff8381831617835250505050612004565b505050565b6001816000016000828254019250508190555050565b60008151905060006a636f6e736f6c652e6c6f679050602083016000808483855afa5050505050565b505050565b505050565b60006120588473ffffffffffffffffffffffffffffffffffffffff16612229565b156121c1578373ffffffffffffffffffffffffffffffffffffffff1663150b7a026120816113e8565b8786866040518563ffffffff1660e01b81526004016120a39493929190612dff565b602060405180830381600087803b1580156120bd57600080fd5b505af19250505080156120ee57506040513d601f19601f820116820180604052508101906120eb919061276a565b60015b612171573d806000811461211e576040519150601f19603f3d011682016040523d82523d6000602084013e612123565b606091505b50600081511415612169576040517f08c379a000000000000000000000000000000000000000000000000000000000815260040161216090612f1f565b60405180910390fd5b805181602001fd5b63150b7a0260e01b7bffffffffffffffffffffffffffffffffffffffffffffffffffffffff1916817bffffffffffffffffffffffffffffffffffffffffffffffffffffffff1916149150506121c6565b600190505b949350505050565b6121d8838361224c565b6121e56000848484612037565b612224576040517f08c379a000000000000000000000000000000000000000000000000000000000815260040161221b90612f1f565b60405180910390fd5b505050565b6000808273ffffffffffffffffffffffffffffffffffffffff163b119050919050565b600073ffffffffffffffffffffffffffffffffffffffff168273ffffffffffffffffffffffffffffffffffffffff1614156122bc576040517f08c379a00000000000000000000000000000000000000000000000000000000081526004016122b39061305f565b60405180910390fd5b6122c58161137c565b15612305576040517f08c379a00000000000000000000000000000000000000000000000000000000081526004016122fc90612f5f565b60405180910390fd5b6123116000838361202d565b6001600360008473ffffffffffffffffffffffffffffffffffffffff1673ffffffffffffffffffffffffffffffffffffffff16815260200190815260200160002060008282546123619190613203565b92505081905550816002600083815260200190815260200160002060006101000a81548173ffffffffffffffffffffffffffffffffffffffff021916908373ffffffffffffffffffffffffffffffffffffffff160217905550808273ffffffffffffffffffffffffffffffffffffffff16600073ffffffffffffffffffffffffffffffffffffffff167fddf252ad1be2c89b69c2b068fc378daa952ba7f163c4a11628f55a4df523b3ef60405160405180910390a461242260008383612032565b5050565b82805461243290613446565b90600052602060002090601f016020900481019282612454576000855561249b565b82601f1061246d57805160ff191683800117855561249b565b8280016001018555821561249b579182015b8281111561249a57825182559160200191906001019061247f565b5b5090506124a891906124ac565b5090565b5b808211156124c55760008160009055506001016124ad565b5090565b60006124dc6124d78461317a565b613155565b9050828152602081018484840111156124f457600080fd5b6124ff848285613404565b509392505050565b60008135905061251681613c28565b92915050565b60008135905061252b81613c3f565b92915050565b60008135905061254081613c56565b92915050565b60008151905061255581613c56565b92915050565b600082601f83011261256c57600080fd5b813561257c8482602086016124c9565b91505092915050565b60008135905061259481613c6d565b92915050565b6000602082840312156125ac57600080fd5b60006125ba84828501612507565b91505092915050565b600080604083850312156125d657600080fd5b60006125e485828601612507565b92505060206125f585828601612507565b9150509250929050565b60008060006060848603121561261457600080fd5b600061262286828701612507565b935050602061263386828701612507565b925050604061264486828701612585565b9150509250925092565b6000806000806080858703121561266457600080fd5b600061267287828801612507565b945050602061268387828801612507565b935050604061269487828801612585565b925050606085013567ffffffffffffffff8111156126b157600080fd5b6126bd8782880161255b565b91505092959194509250565b600080604083850312156126dc57600080fd5b60006126ea85828601612507565b92505060206126fb8582860161251c565b9150509250929050565b6000806040838503121561271857600080fd5b600061272685828601612507565b925050602061273785828601612585565b9150509250929050565b60006020828403121561275357600080fd5b600061276184828501612531565b91505092915050565b60006020828403121561277c57600080fd5b600061278a84828501612546565b91505092915050565b6000602082840312156127a557600080fd5b60006127b384828501612585565b91505092915050565b6127c581613383565b82525050565b6127d481613395565b82525050565b60006127e5826131c0565b6127ef81856131d6565b93506127ff818560208601613413565b612808816135df565b840191505092915050565b600061281e826131cb565b61282881856131e7565b9350612838818560208601613413565b612841816135df565b840191505092915050565b6000612857826131cb565b61286181856131f8565b9350612871818560208601613413565b80840191505092915050565b6000815461288a81613446565b61289481866131f8565b945060018216600081146128af57600181146128c0576128f3565b60ff198316865281860193506128f3565b6128c9856131ab565b60005b838110156128eb578154818901526001820191506020810190506128cc565b838801955050505b50505092915050565b60006129096032836131e7565b9150612914826135f0565b604082019050919050565b600061292c6025836131e7565b91506129378261363f565b604082019050919050565b600061294f601c836131e7565b915061295a8261368e565b602082019050919050565b6000612972600a836131f8565b915061297d826136b7565b600a82019050919050565b60006129956024836131e7565b91506129a0826136e0565b604082019050919050565b60006129b86019836131e7565b91506129c38261372f565b602082019050919050565b60006129db6063836131f8565b91506129e682613758565b606382019050919050565b60006129fe600b836131f8565b9150612a09826137f3565b600b82019050919050565b6000612a21602c836131e7565b9150612a2c8261381c565b604082019050919050565b6000612a44600d836131f8565b9150612a4f8261386b565b600d82019050919050565b6000612a676038836131e7565b9150612a7282613894565b604082019050919050565b6000612a8a602a836131e7565b9150612a95826138e3565b604082019050919050565b6000612aad6029836131e7565b9150612ab882613932565b604082019050919050565b6000612ad0602e836131e7565b9150612adb82613981565b604082019050919050565b6000612af36002836131f8565b9150612afe826139d0565b600282019050919050565b6000612b166020836131e7565b9150612b21826139f9565b602082019050919050565b6000612b396031836131e7565b9150612b4482613a22565b604082019050919050565b6000612b5c602c836131e7565b9150612b6782613a71565b604082019050919050565b6000612b7f602f836131e7565b9150612b8a82613ac0565b604082019050919050565b6000612ba2600a836131f8565b9150612bad82613b0f565b600a82019050919050565b6000612bc56021836131e7565b9150612bd082613b38565b604082019050919050565b6000612be8600a836131f8565b9150612bf382613b87565b600a82019050919050565b6000612c0b601d836131f8565b9150612c1682613bb0565b601d82019050919050565b6000612c2e6031836131e7565b9150612c3982613bd9565b604082019050919050565b612c4d816133ed565b82525050565b612c5c816133f7565b82525050565b6000612c6e828461284c565b915081905092915050565b6000612c85828561284c565b9150612c91828461284c565b91508190509392505050565b6000612ca9828661284c565b9150612cb5828561284c565b9150612cc1828461284c565b9150819050949350505050565b6000612cda828761287d565b9150612ce6828661284c565b9150612cf2828561284c565b9150612cfe828461284c565b9150612d0982612a37565b915081905095945050505050565b6000612d2282612965565b9150612d2e828461284c565b915081905092915050565b6000612d44826129f1565b9150612d50828461284c565b915081905092915050565b6000612d6682612b95565b9150612d72828561284c565b9150612d7d826129ce565b9150612d89828461284c565b9150612d9482612ae6565b91508190509392505050565b6000612dab82612bdb565b9150612db7828461284c565b915081905092915050565b6000612dcd82612bfe565b9150612dd9828461284c565b915081905092915050565b6000602082019050612df960008301846127bc565b92915050565b6000608082019050612e1460008301876127bc565b612e2160208301866127bc565b612e2e6040830185612c44565b8181036060830152612e4081846127da565b905095945050505050565b6000604082019050612e6060008301856127bc565b612e6d6020830184612c44565b9392505050565b6000602082019050612e8960008301846127cb565b92915050565b60006020820190508181036000830152612ea98184612813565b905092915050565b60006040820190508181036000830152612ecb8185612813565b9050612eda6020830184612c44565b9392505050565b60006060820190508181036000830152612efb8186612813565b9050612f0a6020830185612c44565b612f1760408301846127bc565b949350505050565b60006020820190508181036000830152612f38816128fc565b9050919050565b60006020820190508181036000830152612f588161291f565b9050919050565b60006020820190508181036000830152612f7881612942565b9050919050565b60006020820190508181036000830152612f9881612988565b9050919050565b60006020820190508181036000830152612fb8816129ab565b9050919050565b60006020820190508181036000830152612fd881612a14565b9050919050565b60006020820190508181036000830152612ff881612a5a565b9050919050565b6000602082019050818103600083015261301881612a7d565b9050919050565b6000602082019050818103600083015261303881612aa0565b9050919050565b6000602082019050818103600083015261305881612ac3565b9050919050565b6000602082019050818103600083015261307881612b09565b9050919050565b6000602082019050818103600083015261309881612b2c565b9050919050565b600060208201905081810360008301526130b881612b4f565b9050919050565b600060208201905081810360008301526130d881612b72565b9050919050565b600060208201905081810360008301526130f881612bb8565b9050919050565b6000602082019050818103600083015261311881612c21565b9050919050565b60006020820190506131346000830184612c44565b92915050565b600060208201905061314f6000830184612c53565b92915050565b600061315f613170565b905061316b8282613478565b919050565b6000604051905090565b600067ffffffffffffffff821115613195576131946135b0565b5b61319e826135df565b9050602081019050919050565b60008190508160005260206000209050919050565b600081519050919050565b600081519050919050565b600082825260208201905092915050565b600082825260208201905092915050565b600081905092915050565b600061320e826133ed565b9150613219836133ed565b9250827fffffffffffffffffffffffffffffffffffffffffffffffffffffffffffffffff0382111561324e5761324d613523565b5b828201905092915050565b6000613264826133f7565b915061326f836133f7565b92508260ff0382111561328557613284613523565b5b828201905092915050565b600061329b826133ed565b91506132a6836133ed565b9250826132b6576132b5613552565b5b828204905092915050565b60006132cc826133ed565b91506132d7836133ed565b9250817fffffffffffffffffffffffffffffffffffffffffffffffffffffffffffffffff04831182151516156133105761330f613523565b5b828202905092915050565b6000613326826133ed565b9150613331836133ed565b92508282101561334457613343613523565b5b828203905092915050565b600061335a826133f7565b9150613365836133f7565b92508282101561337857613377613523565b5b828203905092915050565b600061338e826133cd565b9050919050565b60008115159050919050565b60007fffffffff0000000000000000000000000000000000000000000000000000000082169050919050565b600073ffffffffffffffffffffffffffffffffffffffff82169050919050565b6000819050919050565b600060ff82169050919050565b82818337600083830152505050565b60005b83811015613431578082015181840152602081019050613416565b83811115613440576000848401525b50505050565b6000600282049050600182168061345e57607f821691505b6020821081141561347257613471613581565b5b50919050565b613481826135df565b810181811067ffffffffffffffff821117156134a05761349f6135b0565b5b80604052505050565b60006134b4826133ed565b91507fffffffffffffffffffffffffffffffffffffffffffffffffffffffffffffffff8214156134e7576134e6613523565b5b600182019050919050565b60006134fd826133ed565b9150613508836133ed565b92508261351857613517613552565b5b828206905092915050565b7f4e487b7100000000000000000000000000000000000000000000000000000000600052601160045260246000fd5b7f4e487b7100000000000000000000000000000000000000000000000000000000600052601260045260246000fd5b7f4e487b7100000000000000000000000000000000000000000000000000000000600052602260045260246000fd5b7f4e487b7100000000000000000000000000000000000000000000000000000000600052604160045260246000fd5b6000601f19601f8301169050919050565b7f4552433732313a207472616e7366657220746f206e6f6e20455243373231526560008201527f63656976657220696d706c656d656e7465720000000000000000000000000000602082015250565b7f4552433732313a207472616e736665722066726f6d20696e636f72726563742060008201527f6f776e6572000000000000000000000000000000000000000000000000000000602082015250565b7f4552433732313a20746f6b656e20616c7265616479206d696e74656400000000600082015250565b7f54484952445f574f524400000000000000000000000000000000000000000000600082015250565b7f4552433732313a207472616e7366657220746f20746865207a65726f2061646460008201527f7265737300000000000000000000000000000000000000000000000000000000602082015250565b7f4552433732313a20617070726f766520746f2063616c6c657200000000000000600082015250565b7f222c20226465736372697074696f6e223a20224120686967686c79206163636c60008201527f61696d656420636f6c6c656374696f6e206f6620737175617265732e222c202260208201527f696d616765223a2022646174613a696d6167652f7376672b786d6c3b6261736560408201527f36342c0000000000000000000000000000000000000000000000000000000000606082015250565b7f5345434f4e445f574f5244000000000000000000000000000000000000000000600082015250565b7f4552433732313a206f70657261746f7220717565727920666f72206e6f6e657860008201527f697374656e7420746f6b656e0000000000000000000000000000000000000000602082015250565b7f3c2f746578743e3c2f7376673e00000000000000000000000000000000000000600082015250565b7f4552433732313a20617070726f76652063616c6c6572206973206e6f74206f7760008201527f6e6572206e6f7220617070726f76656420666f7220616c6c0000000000000000602082015250565b7f4552433732313a2062616c616e636520717565727920666f7220746865207a6560008201527f726f206164647265737300000000000000000000000000000000000000000000602082015250565b7f4552433732313a206f776e657220717565727920666f72206e6f6e657869737460008201527f656e7420746f6b656e0000000000000000000000000000000000000000000000602082015250565b7f45524337323155524953746f726167653a2055524920736574206f66206e6f6e60008201527f6578697374656e7420746f6b656e000000000000000000000000000000000000602082015250565b7f227d000000000000000000000000000000000000000000000000000000000000600082015250565b7f4552433732313a206d696e7420746f20746865207a65726f2061646472657373600082015250565b7f45524337323155524953746f726167653a2055524920717565727920666f722060008201527f6e6f6e6578697374656e7420746f6b656e000000000000000000000000000000602082015250565b7f4552433732313a20617070726f76656420717565727920666f72206e6f6e657860008201527f697374656e7420746f6b656e0000000000000000000000000000000000000000602082015250565b7f4552433732314d657461646174613a2055524920717565727920666f72206e6f60008201527f6e6578697374656e7420746f6b656e0000000000000000000000000000000000602082015250565b7f7b226e616d65223a202200000000000000000000000000000000000000000000600082015250565b7f4552433732313a20617070726f76616c20746f2063757272656e74206f776e6560008201527f7200000000000000000000000000000000000000000000000000000000000000602082015250565b7f46495253545f574f524400000000000000000000000000000000000000000000600082015250565b7f646174613a6170706c69636174696f6e2f6a736f6e3b6261736536342c000000600082015250565b7f4552433732313a207472616e736665722063616c6c6572206973206e6f74206f60008201527f776e6572206e6f7220617070726f766564000000000000000000000000000000602082015250565b613c3181613383565b8114613c3c57600080fd5b50565b613c4881613395565b8114613c5357600080fd5b50565b613c5f816133a1565b8114613c6a57600080fd5b50565b613c76816133ed565b8114613c8157600080fd5b5056fe416e204e465420772f20494420257320686173206265656e206d696e74656420746f2025734142434445464748494a4b4c4d4e4f505152535455565758595a6162636465666768696a6b6c6d6e6f707172737475767778797a303132333435363738392b2fa264697066735822122041257c862b07ae07963da4f438069b787ec671d4433eeba921010ad63dace73264736f6c634300080400333c73766720786d6c6e733d27687474703a2f2f7777772e77332e6f72672f323030302f73766727207072657365727665417370656374526174696f3d27784d696e594d696e206d656574272076696577426f783d273020302033353020333530273e3c7374796c653e2e62617365207b2066696c6c3a2077686974653b20666f6e742d66616d696c793a2073657269663b20666f6e742d73697a653a20323470783b207d3c2f7374796c653e3c726563742077696474683d273130302527206865696768743d2731303025272066696c6c3d27626c61636b27202f3e3c7465787420783d273530252720793d273530252720636c6173733d27626173652720646f6d696e616e742d626173656c696e653d276d6964646c652720746578742d616e63686f723d276d6964646c65273e",
  "linkReferences": {},
  "deployedLinkReferences": {}
}